:4000000000800020110000005D0800005D08000008B5044B1A6803F53F5302331A6000F025FC00BFFA46004010B5054C237833B9044B13B10448AFF300800123237010BD8C
:400040006081FF1F00000000382F0000084B10B51BB108490848AFF300800848036803B910BD074B002BFBD0BDE81040184700BF000000006481FF1F382F0000C880FF1F04
:400080000000000010B40022144B1A700AE019B92024134AD45402E02024124AD45401330E4A13700D4B1B78092BF0D900220B4B1A700EE021B9094A1278094CA35403E075
:4000C000064A1278074CA354044A13780133137001300378002BEDD110BC7047E881FF1FEC81FF1FA881FF1F70B584B062B602F0B5FC01F095FF00F09DFC00F039FC02F0A2
:40010000B1F88D4B93E8030002908DF80C108B4B93E8030000908DF804100121002000F097FD002000F04EFC02F00EFD02F0FAFC0028B8BF404284B2012002F047F8002141
:40014000084602F09DF87E4802F032F84FF47A7002F0F0F800250CE002F0F6FC02F0E2FC0028B8BF404284B20135EDB2284600F029FC002CF0D1012002F028F800210846BE
:4001800002F07EF86F4802F013F84FF47A7002F0D1F8012002F01AF80021084602F070F8694802F005F802F0CFFC02F0BBFC0546C3431EB24400654B83FB0423A3EBE474A7
:4001C00000F084FD20B100F07BFD08B100F06AFE002DC0F2CB800021012002F051F85C4801F0E6FF0321012002F04AF8A4B2204602F064F8092D0DDC0321002002F040F813
:40020000A8B202F05BF80421002002F039F8514801F0CEFFAEB2A6F10A039BB2592B0DD80321002002F02CF8304602F047F80521002002F025F8474801F0BAFFA6F1640319
:400240009BB2B3F5617F0DD20321002002F018F8304602F033F80621002002F011F83D4801F0A6FFB5F57A7F0DDB0321002002F007F8304602F022F80721002002F000F820
:40028000344801F095FF0921002001F0F9FF324801F08EFF0921012001F0F2FF2F4801F087FF00F00DFD002800F03A812C4E0A223146284602F0EFFD00213046FFF7E2FE54
:4002C0000A223146204602F0E6FD01213046FFF7D9FE00F0C3FE0028FBD0052102A800F02DFE00F0BBFE0028FBD00A211D4800F025FE00F0B3FE0028FBD000F097FE00F0E4
:40030000ADFE0028FBD00521684600F017FE00F0A5FE0028FBD00A21134800F00FFE00F09DFE0028FBD000F081FE00F097FE0028FBD000F07BFEF3E0782F0000802F000046
:400340003C2F0000502F00005C2F000056555555602F0000642F0000682F00006C2F0000A081FF1FEC81FF1FA881FF1F0021012001F086FF6E4801F01BFF0321012001F09F
:400380007FFF6C4801F014FF6EB90321002001F077FFB0B201F092FF0421002001F070FF654801F005FF092E14DC0321002001F067FF624801F0FCFE0421002001F060FF1E
:4003C000B0B201F07BFF0521002001F059FF5A4801F0EEFEB4B2A4F10A039BB2592B14D80321002001F04CFF544801F0E1FE0421002001F045FF204601F060FF06210020FA
:4004000001F03EFF4C4801F0D3FEA4F164039BB2B3F5617F14D20321002001F031FF474801F0C6FE0421002001F02AFF204601F045FF0721002001F023FF3F4801F0B8FE55
:40044000B6F57A7F14DB0321002001F019FF3B4801F0AEFE0421002001F012FF204601F02DFF0821002001F00BFF334801F0A0FE0921002001F004FF314801F099FE0921FB
:40048000012001F0FDFE2F4801F092FE00F018FC002845D000F0E2FD0028FBD0052102A800F04CFD00F0DAFD0028FBD0234800F06DFD00F0D3FD0028FBD0234C0A222146F7
:4004C000304602F0E8FC00212046FFF7DBFD00F0C5FD0028FBD00A211C4800F02FFD00F0BDFD0028FBD000F0A1FD00F0B7FD0028FBD00521684600F021FD00F0AFFD0028A3
:40050000FBD00C4800F042FD00F0A8FD0028FBD000F08CFD00F0A2FD0028FBD000F086FD4FF47A7001F006FF012001F04FFE33E6602F0000702F0000642F0000742F000078
:40054000682F00006C2F0000A081FF1FEC81FF1FFEE700BFF0B40022174611E050F82760F3B226F0FF0608E001EB420511F812406D78A5550132013BDBB2002BF4D10137BF
:40058000152FEBD9F0BC7047144B1B78DBB203F00701134A11701B09013213708023A2F262721370302140321170102102F6D302117020210432117040220A48027070308F
:4005C000017009490A70094A13704FF48172084B1A804422A3F534731A707047CF0100496E580040285A0040005B0040045B0040465B004008B50A46002102F059FC08BDA9
:4006000008B502F04AFC08BD38B500223C4B1A80502202331A7004223A493B48FFF7F0FF06223A4B1A7043F21332EE3B1A80023B05221A701B7843F2C82404E04FF4F070F1
:4006400002F0A6FB013C24B1314B1B7813F0800FF4D114B90120FFF77BFF4FF4E2622D4B1A8001224FF040231A7041F2512203F508731A80002419250CE0274B1B7803F030
:40068000010343EA440404F003044FF4F07002F07FFB013D0DB1032CEFD115B90320FFF757FF1E4B4FF480721A8003211C4A11701C4A1278D2B21C490A7007221A70002224
:4006C000A1F29B610A704820023108701A700223164A1370083A13700422154B1A70154A137843F001031370013A137843F001031370013A137843F08003137038BD00BFA0
:4007000080400040F40000480041004000430040104200402242004025420040044000400042004008010049A1460040094000400B400040A243004038B572B6324A1378C8
:4007400043F00403137000240CE0304D630019194A0011462A44084691882858FFF74AFF0134E4B2062CF0D929494FF09040FFF7F1FE0A25274B1D70274A137843F00203D7
:4007800013701032137843F002031370234C237843F040032370A2F58632513A137843F01003137008221E491E48FFF729FF2A461D491E48FFF724FF08221D491D48FFF798
:4007C0001FFF08221C491D48FFF71AFF08221C491C48FFF715FF08221B491C48FFF710FF1B4A137843F0080313701A4D61232B70FFF70AFFC1232B70FFF7C6FE0E222146DE
:400800001548FFF7FDFE38BDE8460040882F0000580000488358004003500140A0430040C000004802510040C8000048F0510040D400004812510040DC000048225100401C
:40084000E400004832510040EC000048425100402243004000480040B043004008B502F0D7FA03680C2B00D1FEE7FEE708B5104E104D16E029686B68AC68002204E051F830
:40088000040B43F8040B0432A242F8D1E868002203E0002143F8041B04328242F9D11035013E002EE6D102F0B9FAFFF71DFCFEE7010000009031000008B5104A104B1A60B8
:4008C000104A136843F40073136000230AE0032B03D80D4A52F8231000E00C490C4A42F8231001332F2BF2D90A4B1A780A4B1A70074A0A4B1A60FFF71FFF08BD0004FA0509
:400900000CED00E014ED00E0000000005D0800000080FF1FBC760040C080FF1F08ED00E0084A137843F060031370A2F5A652133A137843F0080313701032137843F008032C
:400940001370704777580040054B1A7802F0FC021A701A7800F0030010431870704700BF5E58004008B50120FFF7EEFF08BD00BF08B5054B1B7823B90122034B1A70FFF754
:40098000F1FFFFF7CDFF08BD7C81FF1F054A137843F0080313701032137843F008031370704700BFA8430040054B1A7802F0FD021A701A7800F0020010431870704700BFA9
:4009C0002C580040014B1870704700BF835B0040064B1B78C3F3810303F19243063393F83831DBB2024A1370704700BF2C5800400B46004008B5064B1A7802F0F3021A707F
:400A00001A7800F00C0010431870FFF7E1FF08BD2C58004010B50024054B1C7001331C700420FFF7E7FF2046FFF7BEFF10BD00BF2C58004008B5074B1B7823B9FFF7EAFFA3
:400A40000122044B1A70FFF7A1FF4920FFF7BAFF08BD00BF7D81FF1FF8B502F0A1F90746404A137843F0010313701032137843F00103137001263C4B1E700225943B1D7091
:400A800002F5E2521B32137803F07F031370002001F066FC354C237803F0F9032370344A137803F0DF031370237833432370304601F056FC282001F053FC2E4B1A7802F0E7
:400AC0007F021A701A7802F0BF021A7023782B432370284601F044FC237843F0040323700024254B1C7001331C70384602F05CF90721172001F052FC2049172001F03AFC6F
:400B00000721182001F04AFC1D49182001F032FC0721152001F042FC1A49152001F02AFC0721204601F03AFC1749204601F022FC0721304601F032FC1449304601F01AFC05
:400B40000721284601F02AFC1149284601F012FC07210C2001F022FC0E490C2001F00AFCF8BD00BFA54300409D6000409443004012600040F851004084600040DD150000E3
:400B8000C5130000D915000039150000691500009D150000E515000008B5214B18700023204A1370204A1370204A1370204A1370204A1370204A1370204A1370204B4FF4FA
:400BC00000021A604FF080721A604FF400121A6001221A6002221A6004221A6011B1012906D00BE0174A137803F0FE0313700AE0144A137843F00103137004E0114A1378BD
:400C000043F00103137003220F4B1A708022203B1A70012002F0BCF804220C4B1A7008BD4582FF1F4882FF1F6482FF1F6782FF1F5C82FF1F6682FF1F6982FF1F4482FF1F10
:400C400000E100E009600040286000401260004038B504460D46064B1B7823B9FFF7FCFE0122034B1A7029462046FFF795FF38BD7E81FF1F00230A4A13700A4A13700A4AC5
:400C800013700A4A13700A4A13700A4A13700A4A13700322094B1A708022203B1A7070474882FF1F6482FF1F6782FF1F5C82FF1F6682FF1F6982FF1F4482FF1F286000406A
:400CC000014B1878704700BF6782FF1F064B1B7813F0FF0F05D0044B1878C0B200221A7070470020704700BF6482FF1F00EB40008300024A13445878704700BF6C82FF1FE0
:400D0000431EDBB2072B3CD8F0B4074600EB4004A3001C4C2344DB889BB2C3F500739A4208D900EB400293002344DA8892B2C2F5007292B200EB4004A300124C2344DB7831
:400D400043EA1223104D04012E192B55D3B2737039B909E0CE5C3D010C4C665501339BB200E000239A42F5D8420002449300054A134400225A705A79D2B20001044B1A543B
:400D8000F0BC70476C82FF1FFC5F004078600040FE5F0040431EDBB2072B0BD8420002449300054A134400225A705A79D2B20001024B1A54704700BF6C82FF1FFE5F004092
:400DC0000246002001E0013080B2135C002BFAD1704700BF10B4FF2400230EE0094AD25C02EB42029100084A11448A7AD2B2824201D11C4602230133DBB2012BEED92046CB
:400E000010BC70473482FF1F6C82FF1F10B5204C2079FFF7DFFF237813F0800F0ED06378DBB2212B2FD11B4B07221A80C0EBC000194A1044586000F033FB10BD144B5B78D2
:400E4000DBB2202B02D0222B10D01EE0114A07231380C0EBC00310490B4453600F4A135C43F00103135400F043FB10BD084B9B780B4A22F81030094A135C43F002031354E5
:400E800000F0CCF910BD002010BD002010BD00BF006000405082FF1FCC80FF1F2C82FF1F4082FF1F10B500241F4B1C701F4B1C705C700AE01E4B185DC0B2431EDBB2072B76
:400EC00001D8FFF767FF0134E4B2012CF2D9194B1B7813F0FF0F1AD0154B1B7813F0FF0F17D0154B1B7813F0FF0F14D0114B1B78DBB2082B11D80E4B1B78DBB2082B0ED80B
:400F00000D4B1B78DBB2082B0BD8002010BD012010BD012010BD012010BD012010BD012010BD012010BD00BF7F81FF1F2C82FF1F3882FF1F3082FF1F3482FF1F70B506460C
:400F40000D460F4B1B780F4AD45CE4B204EB440293000D4A13441B899BB28B4209D204EB44029300084A13441D89ADB2002001F0DFF92A4631462046FFF7C2FE70BD00BFB5
:400F80007F81FF1F3082FF1F6C82FF1F2DE9F8438046234B1B78234AD65CF6B2FFF710FF05460027344606EB460293001E4A13441B899BB29D4209D906EB460293001A4A7A
:400FC0001344B3F808901FFA89F900E0A9464A4608EB07013046FFF793FEC9EB0505ADB245B906EB460293000F4A13441B899BB2994510D14F44BFB204EB440293000A4AFE
:4010000013445B7813F0FF0FF6D025B9002211463046FFF775FE002DC4D1BDE8F88300BF7F81FF1F3082FF1F6C82FF1F00B583B0074B1B88ADF80430064B1B78064AD05CC8
:40104000022201A9FFF75CFE03B05DF804FB00BFB42F00007F81FF1F3082FF1F08B5034B1B78034AD05CFFF741FE08BD7F81FF1F3082FF1FC37803F0030390F902000028D5
:401080000FDA032B06D002F001030B48C15442F001020EE0C2F380030848C15442F0040207E0032B05D0C2F340030548C15442F002021046704700BF3082FF1F3482FF1F03
:4010C0003882FF1F1D4B19781D4A13889BB20B449BB2138000220FE01A494B681B78DBB2194883544B6801334B600132D2B20B889BB2013B9BB20B80124B1B889BB20BB1DC
:40110000072AE9D90D4B1B78DBB2082B00D05AB10E490B7883F080030B700F210C4B197002210C4B197004E0022309490B7009490B70094B1A70014B1A7070474482FF1FE6
:401140004682FF1F5082FF1F00600040DA82FF1F6582FF1F4882FF1F6882FF1F0222074B1A708022064B1A700F22064B1A700023054A1370054A1370012070474882FF1F7A
:40118000DA82FF1F6582FF1F4482FF1F6882FF1F08B5FFF797FF08BD10B4194B197801F00F010239C9B2174A13889BB20B449BB21380002011E0144A5468144B1B5CDBB240
:4011C00023705368013353600130C0B20139C9B213889BB2013B9BB213800B4B1B889BB20BB10029E7D10A4B19700A4A137883F0800313700B22084B1A7010BC704700BFF9
:40120000296000404682FF1F5082FF1F006000406882FF1FDA82FF1F6582FF1F0623064A1370064A13708022054B1A700022054B1A700120704700BF4882FF1F6582FF1F1D
:40124000DA82FF1F6882FF1F064B9B6843B1054B9A6810709A6804490988518000229A60704700BF5082FF1F4682FF1F08B5134B1A78D2B21A701B78DBB213F0800F02D07A
:401280000F4A137008BD0220FFF7DEFF0D4B1B7803F06003202B05D0402B06D043B900F093FC06E001F084FD03E000F037FE00E0002010B90322024B1A7008BD28600040C9
:4012C0006582FF1F0060004008B5094B1978094A13889BB20B449BB213800022064B1A700120FFF7B1FF0322044B1A7008BD00BF4482FF1F4682FF1F4882FF1F6582FF1F40
:4013000008B50B4B1B78DBB2042B06D0062B07D0022B0BD1FFF7D8FF08BDFFF73DFF08BD0320FFF791FF0322024B1A7008BD00BF4882FF1F6582FF1F08B50022044B1A700D
:401340000120FFF781FF0322024B1A7008BD00BF4882FF1F6582FF1F08B50B4B1B7813F0FF0F07D0084A137843F0800307490B70002313700022064B1A700120FFF764FF60
:401380000322044B1A7008BD6682FF1F086000404882FF1F6582FF1F08B5094B1B78DBB2042B06D0062B07D0022B07D1FFF7F0FE08BDFFF7C1FF08BDFFF7CEFF08BD00BF21
:4013C0004882FF1F08B5284B1B78DBB213F0100F48D013F0800F0CD003F00F03012B16D1FFF744FF214B1B7813F0800F11D1012312E013F0400F03D0FFF7CEFF01230BE03C
:4014000013F0200F07D0FFF77BFF012304E0002302E0002300E0002323B3134B1B7813F0800F1FD1124B1B78124A12781343124A13701278D2B2934214D10C4B1B78DBB26D
:40144000094A127812F0800F07D1084B1B78DBB2054A1370137803F00F03044A1278D2B29342EAD108BD00BF286000406582FF1FDA82FF1F6882FF1F296000400022064B56
:401480001A80064B9B682BB1044A916800230B7092685380704700BF4682FF1F5082FF1F08B50F4B1B889BB213B9FFF757FE15E002220C4B1A7000220B4B1A70FFF7DEFF77
:4014C0000A4AD179937943EA0123054A128892B2934201D2024A1380FFF7F4FD012008BD5082FF1F4882FF1FDA82FF1F0060004008B504220B4B1A7080220B4B1A70FFF743
:40150000BDFF0A4AD179937943EA0123084A128892B2934201D2064A13800B22054B1A70012008BD4882FF1FDA82FF1F006000405082FF1F6582FF1F0122094B1A700F3B0A
:401540009B7C084B1B7B03F00303934204D0054AD37B83F08003D3730122024B5A7370470B6000406C82FF1F02220A4B1A700F3B93F82230084B1B7E03F00303012B04D036
:40158000054AD37E83F08003D3760122024B5A76704700BF0B6000406C82FF1F04220C4B1A700F3B93F832300A4B93F8243003F00303012B06D0074A92F8273083F080034A
:4015C00082F827300122034B83F82520704700BF0B6000406C82FF1F704700BF08B5FFF749FB08BD08B500F09BFE08BD70B588B0054603AC174E0FCE0FC43368237035B3FD
:4016000022232B7003236B7001A800F0DFFE002402231AE008AA224412F81C2C08A901EB121111F8141CE954581C00212954981C02F00F0208AE324412F8142C2A54DA1CBD
:40164000A9540134E4B20433DBB2212BE2D908B070BD00BFB82F000010B401233EE019461A010C242148845403EB4300820020480244527912F0FF0F13D003EB4300820089
:401680001B480244127912F0800F04D01801194A024494700AE01801164A02440820907004E01801134A0244802090704800084482000F480244D488E4B208010B49014473
:4016C0008C71D088C0F30720C871D088C0B20871D288C2F307224A710133DBB2082BBED9FF22054B1A7010BC704700BF706000406C82FF1FFC5F00400A600040074B1A783F
:40170000074B03EBC2035B681A7C824204D9C0001030184440687047002070474582FF1FE42F0000F8B5404B1B7813F0FF0F79D03D4B18780138C0B2FFF7E0FF047AC268BB
:401740003A4B1878C0B200236AE01178884264D13749095CC9B25578A9425ED1917801F07F01D67806F00306DFF8C8E04D000D44AF000EEB07054FF0000C85F803C092F8F9
:4017800002C085F804C092F803C00EF807C097882F8192F90250002D0DDA012E01D1072700E00D274E000E44B500224E35446F7101266E700CE0012E01D1052700E00927BD
:4017C0004E000E44B5001B4E35446F7100266E70DFF868E00F010EEB07060125B57001FA05F529448D00134929440D89C5F307250EF807500D89EDB27570CE88F6B20E4D4C
:401800003D44AE71CE88C6F30726EE71CE88F6B22E71C988C1F30721697108320133DBB2A34292D3F8BD00BF6782FF1F5C82FF1FD882FF1F6C82FF1F70600040FC5F0040DE
:40184000034B1A78034B03EBC2035868704700BF4582FF1FE42F000008B5084B18780138C0B2FFF74BFF30B142681279023200EBC203586808BD002008BD00BF6782FF1FA4
:401880002DE9F047002310E0724D5900CA189600AC190022AA55A270E2702281A272627034462C4462710133DBB2082BECD940B90AE000226849CA546849CA540133DBB28B
:4018C00000E00023012BF4D9654B1B7813F0FF0F00F0BD80624B18780138C0B2FFF70EFF80464368DB7913F0400F05D05D4A137843F00103137004E05A4A137803F0FE03A1
:40190000137098F808704FF0000A01266FE0D8F80C50002467E0AB7803F07F039E425FD1314606EB460083004A4803441B899BB2A888834206D206EB460E4FEA8E03454AB8
:40194000134418812B784448C35CDBB26878834246D195F802C0DFF8FCE04B000B4498000EEB000383F804C0EB780EF80030EB7803F0030395F90200002813DA012B02D1D8
:401980004FF0070901E04FF00D09DFF8C8E04B0003EB010C4FEA8C00704480F805900121417012E0012B02D14FF0050901E04FF00909DFF8A0E04B0003EB010C4FEA8C00B2
:4019C000704480F8059000214170AB790A2B01D0022B05D1524631462846FFF74BFB824608350134E4B2BC4295D30136F6B2082E8DD9D8F80C0000220CE0837803F07F0363
:401A000010F8084B03EB43039900124B19448C720132D2B2BA42F0D3FFF71EFF124B1860002301210FE00B4D4A00501884002C44E380228992B213449BB203F001021344F3
:401A40009BB20131C9B20829EDD9FFF705FEBDE8F08700BF6C82FF1FD882FF1F4C82FF1F6782FF1F6982FF1F6082FF1F08B5154B1B7903F07F035A1ED2B2072A20D859007D
:401A800019448A0010490A44917841F0010191700021D170517841F002015170127912F0800F05D01B01094A1A448D23937004E01B01064A1A4489239370FFF7AFFB08BD08
:401AC000002008BD006000406C82FF1FFC5F0040274B1B7903F07F035A1ED2B2072A44D810B5590019448A0022490A44917801F0FE0191700021D1701F4C1801215C01F0EA
:401B00007F012154517801F0FD015170127912F0800F13D003EB43018A0016490A445278D2B2012A04D1224602440C23937019E01B01114A1A440D23937013E003EB43017B
:401B40008A000C490A445278D2B2012A05D11B01094A1A440823937004E01B01064A1A4409239370FFF75AFB10BD0020704700BF006000406C82FF1FFC5F004010B50E4BFE
:401B80001C79E4B20D4B18780138C0B2FFF7B6FD43681B799C4201D9022C0AD8084A135DDBB208490B55044B9B78DBB21355012010BD002010BD00BF006000406782FF1F1F
:401BC000D882FF1F4C82FF1F10B59C4B1B78DBB200219B4A118013F0800F00F0AD80974A5278D2B20A2A00F27481DFE812F06900720172017201720172010B0072019200A4
:401C000072019A008D4BDB78DBB2012B09D1FFF717FE42688A4B5A6012221A80FFF740FC10BD864BDB78DBB2022B13D1834B9878FFF764FD002800F04E814268804B5A60BB
:401C40005A68D1785A68927842EA01221A80FFF727FC10BD794BDB78DBB2032B05D02CE00A7811440133DBB201E000237549734A9278D2B2934203D20A7812F0FF0FEFD16A
:401C80006E4B9B7813F0FF0F0BD06C4B9B78DBB26D4A127C934204D16C4C2046FFF7A6FC21460B7813F0FF0F00F017810B78644A13805160FFF7F4FB10BD01F079F810BD97
:401CC00013F0030317D0022B40F009815C490B805A4B1B7903F07F0303EB43039A005C4B1A449278D2B25B4B1A7000225A704B60FFF7D6FB10BD524902230B80564B1A78F5
:401D0000D2B2544B1A7000225A704B60FFF7C8FB10BD4B4B01221A80504A5A60FFF7C0FB10BD474A01231380444B1B794C490B445360FFF7B5FB10BD404A5278013A0A2A7C
:401D400000F2CF80DFE812F04C00CD009800CD000B00CD00CD00CD001300CD003000374B9B78DBB23F4A1370FFF758FA10BD334B9B7803F0FF041BB1601EC0B2FFF7BEFC23
:401D800004B110B9002C40F0AE80344B1B78DBB29C4206D0314B1C700120334B1870FFF76FFDFFF73BFA10BDFFF7E8FE002800F09C80224A1379DBB21279D2B22B490A70AD
:401DC0002B4AD25CD2B22649CB5CDBB29A4204D00122254B1A70FFF7A5FCFFF71FFA10BD03F00303012B17D04BB1022B7FD1134B9B7813F0FF0F7CD1FFF76AFE10BD0F4B80
:401E00009B78DBB2012B76D1134A137803F0FD031370FFF703FA10BD084B1B79DBB2012B6BD8064B98781B79DBB21249CA5C22EA0002CA54FFF7F2F910BD00BF0060004052
:401E40005082FF1F4C30000030310000E482FF1F6C82FF1F8081FF1F6982FF1F6782FF1FD882FF1F6682FF1F6482FF1F5C82FF1F4C82FF1FDC82FF1F03F00303012B17D0E4
:401E80004BB1022B3BD1224B9B7813F0FF0F38D1FFF7ECFD10BD1E4B9B78DBB2012B32D11C4A137843F002031370FFF7B7F910BD174B1B79DBB2012B27D8154B98781B799E
:401EC000DBB21549CA5C22EA0002CA54FFF7A6F910BD002010BD002010BD002010BD002010BD002010BD002010BD002010BD002010BD002010BD002010BD002010BD0020F4
:401F000010BD002010BD002010BD002010BD00BF006000406982FF1FDC82FF1F044B1B7813F0800F01D0024B5B780020704700BF00600040084A137843F0040313701032B2
:401F4000137843F00403137002F5A5521E32137843F0800313707047A9430040044A137803F0FC0300F0030018431070704700BF0958004010B487B00446194B03AA1868AE
:401F8000596803C2197A11706A4653F80C0F596803C21B7A1370082C1ED812490B7803F08003DBB20B70087806AB1C4414F80C3C14F8182C920002F00C02134303430B706F
:401FC000094A137803F0F3031370117814F8183C0B4343F00C03137007B010BC704700BFCC2F00000A5800400958004008B50C22084B1A70084A137843F0200313700022C4
:40200000064B1A700820FFF7B5FF0320FFF7A6FF08BD00BF08580040095800400A58004008B5054B1B7823B9FFF7E0FF0122024B1A70FFF77FFF08BD8281FF1F10B50B4C0D
:40204000237803F09F032370237803F0F00323702378184340F010002070012000F080F9237803F0EF03237010BD00BF2051004038B505460E4C237843F020032370237838
:4020800003F0BF032370002000F06AF9237803F0F003237023781D4345F010052570012000F05EF9237803F0EF03237038BD00BF2051004070B5354B1A7802F08002D2B268
:4020C0001A7033490A7802F0F00242F00F020A7001310A7802F0F0020A7001310A7802F0F0020A701A7802F0DF021A701A7842F040021A704FF4CA76002000F031F9234DE7
:402100002B7843F010032B70012000F029F9214B1C78E4B22B7803F0EF032B70002000F01FF904F00804E4B22B7843F010032B70012000F015F92B7803F0EF032B7014B9DE
:402140000A2000F00DF9013E0CB1002ED4D10F4A137803F0BF031370137803F08003DBB213700232137803F0F00313700132137803F0F00343F00F0313700132137803F0FE
:40218000F00343F00F03137070BD00BF20510040225100402151004010B50446FFF78AFF2009FFF765FF04F00F00FFF761FF10BD38B505460078012404E0FFF7EDFF285D0B
:4021C0000134E4B20028F8D138BD00BF10B50446FFF770FF2009FFF731FF04F00F00FFF72DFF10BD08B5282000F0A4F80320FFF725FF052000F09EF80320FFF71FFF0F20DB
:4022000000F098F80320FFF719FF012000F092F80220FFF713FF052000F08CF80620FFF7D5FF0E20FFF7D2FF2C20FFF7CFFF0820FFF7CCFF0120FFF7C9FF0C20FFF7C6FFEB
:402240000320FFF7C3FF052000F074F808BD00BF08B50C20FFF7BAFF0122014B1A7008BD8381FF1F08B5054B5B7823B9FFF7BAFF0122024B5A70FFF7EBFF08BD8381FF1F9A
:4022800008B5032819D8DFE800F002070D1381F08000FFF79BFF08BDA1F14000C0B2FFF795FF08BDA1F16C00C0B2FFF78FFF08BDA1F12C00C0B2FFF789FF08BD10B584B067
:4022C00000238DF80E30092211E0144BA3FB0013DB081C4603EB83035900431ADBB2303304A9114401F80C3C2046013AD2B20928EBD80A4BA3FB0013DB0803EB830359005B
:40230000431ADBB2303304A9114401F80C3C01AB9818FFF74DFF04B010BD00BFCDCCCCCC024B1878C0F38010704700BF8F45004001BE704710B5044605E0084B186800F027
:4023400027FDA4F50044B4F5004FF6D8034B586800FB04F000F01CFD10BD00BFE880FF1F08B5034B1B7A00FB03F000F011FD08BDE880FF1F70B504460E46074B1D681F28C6
:4023800002D90020FFF7D4FF04F01F04103455F8240045F8246070BD08ED00E038B504460D46072902D90020FFF7C2FF1F2C02D90020FFF7BDFF04F01F0000F1604000F5CD
:4023C00064406D01EDB2057038BD00BF134B1B78DBB20360124A127843EA02230360114A127843EA024303600F4A127843EA026303600E4B1B78DBB243600D4A127843EACB
:40240000022343600B4A127843EA024343600A4A127843EA02634360704700BF0301004904010049EC460040020100490101004900010049050100490601004938B59DF848
:402440001040651EEDB2032D51D8013809282ED8DFE800F0052D2D052D2D0F192D230F2B03D92548007840B222E02448007840B21EE00F2B03D92248007840B218E0214826
:40248000007840B214E00F2B03D91F48007840B20EE01E48007840B20AE00F2B03D91C48007840B204E01B48007840B200E0002001EB401101FB02F2D20B91B20D2B0BD832
:4024C000C3F10E0192B20A4191B2621E124800EB82020133937005E0631E0F4A02EB83030F229A70013C0C4B23F8241038BD0020FFF71EFF38BD00BF180100491C010049D3
:40250000190100491D0100491A0100491E0100491B0100491F0100498881FF1FF8B5074600F03EFC06460D4D2B7843F003032B700B4C237843F0030323700A4B1F7003200A
:40254000FFF70EFF2B7803F0FC032B70237803F0FC032370304600F027FCF8BDF8460040F946004092580040F8B504460022BB4B1A7401285AD13822B94B1A70042202335F
:402580001A70072201331A70002501331D7001331D703F2201331A7002331D7001331D7001331D7001260A331E70502203F527631A70272201331A702C2201331A700133E9
:4025C0001D70552203331A705A2201331A70052701331F7002331E70112201331A70192201331A70972201331A704420FFF796FF58229C4B1A7001331D7005331F70013334
:402600001E7001331D700A2201331A704FF4FA42954B1A6031460B2000F0CAFA31464A2000F04AFB91491D20FFF7A4FE022C5AD138228B4B1A70042202331A700722013318
:402640001A70002501331D7001331D703F2201331A7002331D7001331D7001331D7001260A331E70502203F527631A70272201331A702C2201331A7001331D7055220333D5
:402680001A705A2201331A70052701331F7002331E70112201331A70192201331A70972201331A704420FFF739FF58226D4B1A7001331D7005331F7001331E7001331D70EA
:4026C0000A2201331A704FF4FA42674B1A6031460B2000F06DFA31464A2000F0EDFA64491D20FFF747FE032C5AD138225C4B1A70042202331A70072201331A700025013365
:402700001D7001331D703F2201331A7002331D7001331D7001331D7001260A331E70502203F527631A70272201331A702C2201331A7001331D70552203331A705A220133BD
:402740001A70052701331F7002331E70112201331A70192201331A70972201331A704420FFF7DCFE58223F4B1A7001331D7005331F7001331E7001331D700A2201331A7005
:402780004FF4FA42384B1A6031460B2000F010FA31464A2000F090FA36491D20FFF7EAFD042C5AD138222E4B1A70042202331A70072201331A70002401331C7001331C70E5
:4027C0003F2201331A7002331C7001331C7001331C7001250A331D70502203F527631A70272201331A702C2201331A7001331C70552203331A705A2201331A700526013368
:402800001E7002331D70112201331A70192201331A70972201331A704420FFF77FFE5822104B1A7001331C7005331E7001331D7001331C700A2201331A704FF4FA420A4BEC
:402840001A6029460B2000F0B3F929464A2000F033FA09491D20FFF78DFDF8BD8881FF1F004E004094580040E082FF1F712B0000752B0000792B00007D2B00002DE9F041BE
:4028800082B0394E4FF0010886F80080374F00247C74102000F07AF9102000F0FBF907211D20FFF77BFD0425314B1D7001331C7007331C702F4A137843F0180313702E4BFF
:4028C0001C7003F2F5231C7001331C700A22A3F209331A7001331C7002331C705B2205331A705E2201331A7004331C701422A3F68C231A70CDF8008010234FF4004249F26B
:40290000DA012846FFF79AFD0223009310234FF4004249F2DA012846FFF790FD0323009310234FF4004249F2DA012846FFF786FD009510234FF4004249F2DA012846FFF715
:402940007DFD3378013B07EB83039A780B4B1A703378013B37F82320094B1A803078FFF703FE02B0BDE8F081F880FF1F8881FF1F96580040075B0040935800400E4E00408A
:402980000C4E004070B500F00BFA06462A4B1B782A4B1A7842F001021A701A7842F010021A7010331A7842F001021A701A7842F010021A70224D2B7843F002032B70214CA3
:4029C000237843F0020323701F4A137843F0030313700320FFF7C4FC2B7803F0FD032B70237803F0FD032370184A137843F0060313707A22164B1A70164A137843F0010341
:402A000013701032137843F0010313700F3A137843F0010313701032137843F0010313704FF000530C4A1360A2F5C0721360304600F0BAF970BD00BFF880FF1FAA43004018
:402A4000F8460040F9460040915800407758004082580040A143004080E200E008B5084B9B7C4BB9064BDB7C13F0FF0F01D1FFF705FF0122024B9A74FFF784FF08BD00BF76
:402A80008881FF1F024A137843F0010313707047004E0040024A137803F0FE0313707047004E0040094B1B7C13F0FF0F03D0074B5B7CDBB203E0064B1B7803F00103012B17
:402AC00001D00028EED01846704700BF8881FF1F014E00400E4B1B7803F00303012B03D80C4B188880B209E00A4A12780A49087842EA0020032B01D1084B1B78084B1B7CCA
:402B000013F0FF0F02D00022054B5A7400B27047144E0040104E0040114E0040124E00408881FF1F064B5B69C01A4FF47A7303FB00F0044B1B6890FBF3F000B2704700BFEE
:402B40008881FF1FE082FF1F10B5084A137843F004031370FFF796FF0020FFF7A3FFFFF7B9FF0446FFF796FF204610BD014E0040704700BF704700BF704700BF704700BFEF
:402B8000014B188880B2704780400040034B1A7800F0F80010431870704700BF82400040024B187800F00700704700BF8240004070B505460E46FFF7F3FF0446FFF7E0FF0E
:402BC000A84256D02B4B1B7803F0010294B900B185B938B9284B1D80284A137803F0BF03137070BD254A137843F040031370224B1D8070BD22B3002321490B7001240F31BB
:402C00000C7004310B700C390B7803F07F030B701A4B1B7813F0080F00D08DB9194B18800721013B1970164B1B7813F0010FFAD110490B7803F0FE030B700021104B19707D
:402C40000C4B1B7813F0010F0DD00E4B1D800EB1032200E001220A4B1A70094B1B7813F0010FFAD170BD044B1D8002490B7813430B7070BDA24300408040004082400040ED
:402C80000140004002400040014B188880B2704700410040034B1A7800F0F80010431870704700BF02410040024B187800F00700704700BF0241004070B505460E46FFF798
:402CC000F3FF0446FFF7E0FFA84256D02B4B1B7803F0010294B900B185B938B9284B1D80284A137803F0BF03137070BD254A137843F040031370224B1D8070BD22B30023F3
:402D000021490B70012413310C7004390B7008390B7803F07F030B701A4B1B7813F0080F00D08DB9194B18800721013B1970164B1B7813F0010FFAD110490B7803F0FE03AA
:402D40000B700021104B19700C4B1B7813F0010F0DD00E4B1D800EB1032200E001220A4B1A70094B1B7813F0010FFAD170BD044B1D8002490B7813430B7070BDA14300406F
:402D8000004100400241004001400040024000400230800803D000BF01380046FCD17047EFF3108072B6704780F31088704700BF08B5144B1B7803F00303012B02D0022B18
:402DC00004D00FE00F4B1B79DBB20CE00D4B1B7903F07F0303EB43039A000B4B1A44937ADBB200E00023022B07D8084A1268D35C022B04D1FEF70AF808BD002008BD00205F
:402E000008BD00BF006000406C82FF1F6082FF1F014B1868704700BF5C81FF1F0E4B70B51E460E4C0025E41AA410A54204D056F8253098470135F8E700F098F9084B094C97
:402E40001E46E41AA4100025A54204D056F8253098470135F8E770BD78310000783100007831000080310000931E222B10B50C4602D90020087010BD0A2A06D1002804DA86
:402E80002D230B704042012100E00021214400F017F8204610BDFFF7E7BF10B5431E0A44914204D011F8014B03F8014FF8E710BD03460244934202D003F8011BFAE7704723
:402EC000F0B58BB003460F466D461A4C04F1200E2E4620686168083403C674453546F7D1217920683171911E222930604FF0000001D938701CE07D1EB3FBF2F402FB1433D4
:402F00000AAE334413F8283C411C05F8013F23460CB10846F0E77C543A18C11A8B4206DAF95C1478FC5402F801190133F5E738460BB0F0BD44310000000000004175746F1B
:402F40002043616C6962726174696F6E0000000043616C696272617465640000563A2000573A2000200000006D56000067000000300000002D0000006D563A2000000000B9
:402F8000676D3A2000000000505100402000C0510040100000000140001000140140000800400140000A004C0140000200500140200000000D0A0000303132333435363755
:402FC00038394142434445460000000001112131416153637300000008090101050707040400000001000000EC2F00000100000030310000000000000000000001000000EF
:403000000430000001000000EC300000030000003030000000000000000000000000000000000000000000002C300000020A000000008103080002000100820240000A0017
:403040000100030240000A0002030000040309042C0343007900700072006500730073002000530065006D00690063006F006E0064007500630074006F00720010035500E8
:403080005300420055004100520054003803430044004300200043006F006D006D0075006E00690063006100740069006F006E00200049006E0074006500720066006100DB
:4030C00063006500260343004400430020004400610074006100200049006E0074006500720066006100630065000000090243000201018032090400000102020103052487
:4031000000100104240202052406000105240100010705810308000A09040100020A0000040705820240000007050302400000001201000202000008B40432F20100010217
:4031400080014300303132333435363738396162636465666768696A6B6C6D6E6F707172737475767778797A00000000F8B500BFF8BC08BC9E4670474D000000B9080000D2
:40318000F8B500BFF8BC08BC9E46704729000000A0310000C880FF1F98000000A80100000000000000C2010000000800C201000000080000A1200000000002000000000096
:4031C0000000C05D80BB000030000000006CDC0201000000000000000000000000000000000000000000000000000000000000000000000042310000000000000000000089
:4032000000000000000000000000000000000000000000000000000000000000000000000000000000000000000000000000000000000000FC80FF1F0000000000000000F4
:40324000000000000000000000000000000000000000000000000000000000000000000000000000000000000000000000000000000000000000000000000000000000004E
:40328000000000000000000000000000000000000000000000000000000000000000000000000000000000000000000000000000000000000000000000000000000000000E
:4032C00000000000000000000000000000000000000000000000000000000000000000000000000000000000000000000000000000000000000000000000000000000000CE
:40330000000000000000000000000000000000000000000000000000000000000000000000000000000000000000000000000000000000000000000000000000000000008D
:020000040003F7
:0200000480007A
:40000000014500400152004001090140040A0140010B0140011501400217014002190140011B014003400140034101400342014003430140024401400145014003460140A8
:40004000074701400648014001490140034C0140024D0140015101407E027C40B502B802BE01D804DF011D02EC10EA02EE0AEA02EE0AEC1033813640CC709F01A640A7800A
:400080009F01A640A7809F01A640A7807C01DE01940145089401D00108080B040F40A508B401C20EEC082510AE40AF81C820EA40EE50B510A508AC08AF44B508EC08002A17
:4000C00000000000000080004000000000000000C0000000000B0B0000000000007F7F0000000000000000000000800000000000000030004A001801000000000000000059
:4001000000000000000000000000000000000000000000000000000000000000000000000000000000000000000000000000000000000000000000000000000000000000BF
:40014000000000000000000000000000000000000000000000000000000000000000000000000000000000000000000000000000000000000000000000000000000000007F
:40018000000000000000000000000000000000000000000000000000000000000000000000000000000000000000000000000000000000000000000000000000000000003F
:4001C00000000000000000000000000000000000000000000000000000000000000000000000000000000000000000000000000000000000000000000000000000000000FF
:0200000490006A
:0400000000004005B7
:0200000490105A
:04000000BC90ACAF55
:0200000490303A
:02000000E14FCE
:0200000490402A
:4000000000000000000000000000000000000000000000000000000000000000000000000000000000000000000000000000000000000000000000000000000000000000C0
:400040000000000000000000000000000000000000000000000000000000000000000000000000000000000000000000000000000000000000000000000000000000000080
:400080000000000000000000000000000000000000000000000000000000000000000000000000000000000000000000000000000000000000000000000000000000000040
:4000C0000000000000000000000000000000000000000000000000000000000000000000000000000000000000000000000000000000000000000000000000000000000000
:0200000490501A
:0C00000000012E12306900012E2411B8FE
:00000001FF